{
  "_format": "hh-sol-artifact-1",
  "contractName": "SimpleCreditSystem",
  "sourceName": "Contracts/SimpleCreditSystem.sol",
  "abi": [
    {
      "inputs": [],
      "stateMutability": "nonpayable",
      "type": "constructor"
    },
    {
      "inputs": [
        {
          "internalType": "address",
          "name": "account",
          "type": "address"
        }
      ],
      "name": "getbalance",
      "outputs": [
        {
          "internalType": "uint256",
          "name": "",
          "type": "uint256"
        }
      ],
      "stateMutability": "view",
      "type": "function"
    },
    {
      "inputs": [
        {
          "internalType": "address",
          "name": "account",
          "type": "address"
        },
        {
          "internalType": "uint256",
          "name": "amount",
          "type": "uint256"
        }
      ],
      "name": "mintCredits",
      "outputs": [],
      "stateMutability": "nonpayable",
      "type": "function"
    },
    {
      "inputs": [
        {
          "internalType": "address",
          "name": "recipeint",
          "type": "address"
        },
        {
          "internalType": "uint256",
          "name": "amount",
          "type": "uint256"
        }
      ],
      "name": "transferCredits",
      "outputs": [],
      "stateMutability": "nonpayable",
      "type": "function"
    }
  ],
  "bytecode": "0x6080604052600060015534801561001557600080fd5b50336000806101000a81548173ffffffffffffffffffffffffffffffffffffffff021916908373ffffffffffffffffffffffffffffffffffffffff1602179055506103e8600260003373ffffffffffffffffffffffffffffffffffffffff1673ffffffffffffffffffffffffffffffffffffffff168152602001908152602001600020819055506103e8600160008282546100b091906100f5565b92505081905550610129565b6000819050919050565b7f4e487b7100000000000000000000000000000000000000000000000000000000600052601160045260246000fd5b6000610100826100bc565b915061010b836100bc565b9250828201905080821115610123576101226100c6565b5b92915050565b610636806101386000396000f3fe608060405234801561001057600080fd5b50600436106100415760003560e01c806368116177146100465780639bae874714610076578063fb97033e14610092575b600080fd5b610060600480360381019061005b919061038d565b6100ae565b60405161006d91906103d3565b60405180910390f35b610090600480360381019061008b919061041a565b6100f7565b005b6100ac60048036038101906100a7919061041a565b6101f8565b005b6000600260008373ffffffffffffffffffffffffffffffffffffffff1673ffffffffffffffffffffffffffffffffffffffff168152602001908152602001600020549050919050565b60008054906101000a900473ffffffffffffffffffffffffffffffffffffffff1673ffffffffffffffffffffffffffffffffffffffff163373ffffffffffffffffffffffffffffffffffffffff1614610185576040517f08c379a000000000000000000000000000000000000000000000000000000000815260040161017c906104b7565b60405180910390fd5b80600260008473ffffffffffffffffffffffffffffffffffffffff1673ffffffffffffffffffffffffffffffffffffffff16815260200190815260200160002060008282546101d49190610506565b9250508190555080600160008282546101ed9190610506565b925050819055505050565b80600260003373ffffffffffffffffffffffffffffffffffffffff1673ffffffffffffffffffffffffffffffffffffffff16815260200190815260200160002054101561027a576040517f08c379a0000000000000000000000000000000000000000000000000000000008152600401610271906105ac565b60405180910390fd5b80600260003373ffffffffffffffffffffffffffffffffffffffff1673ffffffffffffffffffffffffffffffffffffffff16815260200190815260200160002060008282546102c991906105cc565b9250508190555080600260008473ffffffffffffffffffffffffffffffffffffffff1673ffffffffffffffffffffffffffffffffffffffff168152602001908152602001600020600082825461031f9190610506565b925050819055505050565b600080fd5b600073ffffffffffffffffffffffffffffffffffffffff82169050919050565b600061035a8261032f565b9050919050565b61036a8161034f565b811461037557600080fd5b50565b60008135905061038781610361565b92915050565b6000602082840312156103a3576103a261032a565b5b60006103b184828501610378565b91505092915050565b6000819050919050565b6103cd816103ba565b82525050565b60006020820190506103e860008301846103c4565b92915050565b6103f7816103ba565b811461040257600080fd5b50565b600081359050610414816103ee565b92915050565b600080604083850312156104315761043061032a565b5b600061043f85828601610378565b925050602061045085828601610405565b9150509250929050565b600082825260208201905092915050565b7f4f6e6c79204f776e65722063616e2063616c6c20746869732066756e74696f6e600082015250565b60006104a160208361045a565b91506104ac8261046b565b602082019050919050565b600060208201905081810360008301526104d081610494565b9050919050565b7f4e487b7100000000000000000000000000000000000000000000000000000000600052601160045260246000fd5b6000610511826103ba565b915061051c836103ba565b9250828201905080821115610534576105336104d7565b5b92915050565b7f496e73756666696369656e7420637265646974732062616c616e636520696e2060008201527f796f7572206163636f756e740000000000000000000000000000000000000000602082015250565b6000610596602c8361045a565b91506105a18261053a565b604082019050919050565b600060208201905081810360008301526105c581610589565b9050919050565b60006105d7826103ba565b91506105e2836103ba565b92508282039050818111156105fa576105f96104d7565b5b9291505056fea264697066735822122084971acd27202a230167851ca88d907ca861595746ffd8189b42f92844f6979c64736f6c63430008120033",
  "linkReferences": {},
  "deployedLinkReferences": {}
}